:1000000015C1000044C1000042C1000040C1000011
:100010003EC100003CC100003AC1000038C10000F0
:1000200036C1000034C1000032C1000030C1000000
:100030002EC100002CC100002AC1000028C1000010
:1000400026C1000024C1000022C1000020C1000020
:100050001EC100001CC100001AC100000C94E80879
:1000600016C100000C94820C0C94B80C10C1000056
:100070000EC100000CC100000AC1000008C1000050
:1000800006C1000004C1000002C1000000C1000060
:10009000FEC00000FCC00000FAC00000F8C0000074
:1000A000F6C00000F4C00000F2C00000F0C0000084
:1000B000EEC00000ECC00000EAC00000E8C0000094
:1000C000E6C00000E4C00000E2C00000E0C00000A4
:1000D000DEC00000DCC00000DAC00000D8C00000B4
:1000E000D6C00000420A450A340A380A3E0A7C0A91
:1000F000490A4D0A530A570A5B0A610A650A690AE6
:100100007C0A6F0A730A770A00000A0B02090C0DB9
:100110000E080703040100000000000000000000BA
:1001200000000000000000000000000000000000CF
:10013000000000001211100000000000000000008C
:1001400000000000000000000000000000000102AC
:1001500010202008081020401020408002010201D9
:100160000804020101020408102040808040201091
:1001700008040201800402018040201008040201EA
:100180000804020101020408102040800102040852
:10019000102040800505050507050808080802022B
:1001A00002020A0A08080404040401010101010111
:1001B00001010303030303030303040707070C0CF4
:1001C0000C0C0C0C0C0C02020202060606060606BB
:1001D00006060B0B0B0B0B0B0B0B00002000230078
:1001E000260029002C002F0032000001000003012E
:1001F0000601090100002200250028002B002E0026
:100200003100340002010000050108010B0100006B
:100210002100240027002A002D00300033000101B6
:100220000000040107010A019B05EA0C11241FBE0E
:10023000CFEFD1E2DEBFCDBF00E00CBF14E0A0E005
:10024000B2E0ECE4F0E200E00BBF02C007900D92D8
:10025000A030B107D9F724E0A0E0B4E001C01D92BE
:10026000A73EB207E1F712E0CCE2D2E000E006C020
:1002700022970109FE010BBF0E942010C832D1074E
:1002800080E00807A9F70E94380E0C942410B8CE1D
:1002900026E040E855E260E070E08AE494E00E94E5
:1002A000220C67E572E08AE494E00C94760DBF922C
:1002B000CF92DF92EF92FF920F931F93CF93DF9332
:1002C0006C017B01B42E442331F066E872E08AE4CD
:1002D00094E00E946B0DC8E2D2E0888122960E94D1
:1002E000EB0A01E0892B09F400E010E0BB2039F0B3
:1002F0004AE050E0B8018AE494E00E941A0E0C151E
:100300001D0551F020910104309102042F5F3F4FF1
:10031000309302042093010482E0CC34D807E9F63C
:10032000BB20B1F069E473E08AE494E00E946B0DB5
:1003300060910104709102044AE050E08AE494E084
:100340000E941A0E63E972E08AE494E00E946B0D49
:10035000C0E0D2E0888122960E94EB0A01E0892B5E
:1003600009F400E010E0BB2039F04AE050E0B801A9
:100370008AE494E00E941A0E0E151F0549F0809140
:100380000104909102040196909302048093010469
:1003900082E0C632D807F1F6BB20C9F069E473E009
:1003A0008AE494E00E946B0D609101047091020454
:1003B0004AE050E08AE494E0DF91CF911F910F91E1
:1003C000FF90EF90DF90CF90BF900C94210EDF91C3
:1003D000CF911F910F91FF90EF90DF90CF90BF9042
:1003E00008951F93CF93DF93182F882331F060EA8D
:1003F00072E08AE494E00E94760DC8E2D2E088813F
:10040000229662E00E947D0A82E0CC34D807B9F7D8
:10041000C0E0D2E08881229662E00E947D0A82E0FC
:10042000C632D807B9F761E080914C020E947D0A7C
:1004300060E080914C020E94B60A62E08091260240
:100440000E947D0A112331F068EB72E08AE494E0A7
:100450000E946B0D64E670E080E090E032D7412F9F
:1004600061E070E080E090E022DF61E080912602B0
:100470000E947D0A60E0809126020E94B60A62E036
:1004800080914C020E947D0A112331F066ED72E0EA
:100490008AE494E00E946B0D64E670E080E090E0F6
:1004A00010D7412F60E070E081E090E000DF60E075
:1004B00080914C020E947D0A60E0809126020E9499
:1004C0007D0AC8E2D2E08881229660E00E947D0A1F
:1004D00082E0CC34D807B9F7C0E0D2E08881229618
:1004E00060E00E947D0A82E0C632D807B9F7DF914A
:1004F000CF911F9108951F93CF93DF93162FD42F81
:10050000C22F882321F062E088E2F7D707C061E0BC
:1005100088E2F3D760E088E20E94B60A112321F056
:1005200062E089E2EAD707C061E089E2E6D760E0ED
:1005300089E20E94B60ADD2321F062E08AE2DDD77B
:1005400007C061E08AE2D9D760E08AE20E94B60A79
:10055000CC2331F062E08BE2DF91CF911F91CDC7C8
:1005600061E08BE2CAD760E08BE2DF91CF911F910F
:10057000FDC78F929F92AF92BF92CF92DF92EF9280
:10058000FF920F931F93CF93DF93CDB7DEB72C97D6
:100590000FB6F894DEBF0FBECDBF882E962EC42EA8
:1005A000D22E88E0EFE4F2E0DE01119601900D9288
:1005B0008A95E1F719861A861B861C867E0189E0DA
:1005C000E80EF11C8E010F5F1F4FF80180810E5F56
:1005D0001F4F62E092D70E151F05B9F757018E0124
:1005E0000F5F1F4FF80180810E5F1F4FF4D721E08E
:1005F000892B09F420E0F50121935F010E151F05F9
:1006000089F764EF72E08AE494E00E946B0D7E014A
:10061000FDE0EF0EF11CF80161918F0170E04AE0FE
:1006200050E08AE494E00E941A0E0E151F0599F717
:100630008985881549F08091010490910204019602
:1006400090930204809301048A85891549F0809172
:100650000104909102040196909302048093010496
:100660008B858C1549F080910104909102040196CC
:1006700090930204809301048C858D1549F080913C
:100680000104909102040196909302048093010466
:1006900068E473E08AE494E00E946B0D60910104C9
:1006A000709102044AE050E08AE494E02C960FB680
:1006B000F894DEBF0FBECDBFDF91CF911F910F9198
:1006C000FF90EF90DF90CF90BF90AF909F908F9072
:1006D0000C941A0E68E073E08AE494E00E94760DB0
:1006E00021E040E061E080E006DF21E040E061E001
:1006F00080E03FDF20E041E060E081E0FCDE20E0E0
:1007000041E060E081E035CFCF92EF92FF920F930E
:100710001F9362E273E08AE494E00E94760D6FE337
:1007200073E08AE494E00E94760DCC24C3941DEC1F
:10073000E12E1CECF12E0CE41DE320E030E44CE251
:1007400054E46AE370E08FE394E03DD2811109C084
:100750008091010490910204019690930204809389
:10076000010466E473E08AE494E00E946B0D6091FA
:100770000104709102044AE050E08AE494E00E948F
:10078000210E64E573E08AE494E00E94760D23E391
:1007900033E343E550E461E08FE394E081D264E623
:1007A00070E080E090E08DD5CC24C3941DECE12E68
:1007B0001CECF12E0CE41DE320E030E84CEA53E49D
:1007C00069E370E08FE394E0FED1811109C080916C
:1007D0000104909102040196909302048093010415
:1007E00020E030E040EA50E461E08FE394E058D24A
:1007F00064E670E080E090E064D5CC24C3941DEC06
:10080000E12E1CECF12E0CE41DE320E030E442E08C
:1008100054E469E370E08FE394E0D5D1811109C01D
:1008200080910104909102040196909302048093B8
:10083000010423E333E343E550E460E08FE394E015
:100840002FD266E473E08AE494E00E946B0D60911D
:100850000104709102044AE050E08AE494E00E94AE
:10086000210E64E673E08AE494E00E94760D23E3AF
:1008700033E343E550E461E08FE394E05ED264E665
:1008800070E080E090E01DD5CC24C3941DECE12EF7
:100890001CECF12E0CE41DE320E030E84CEA53E4BC
:1008A00068E370E08FE394E08ED1811109C08091FC
:1008B0000104909102040196909302048093010434
:1008C0002DEC3CEC4CE650E461E08FE394E035D253
:1008D00064E670E080E090E0F4D4CC24C3941DEC96
:1008E000E12E1CECF12E0CE41DE320E030E844EC9A
:1008F00053E468E370E08FE394E065D1811109C0AF
:1009000080910104909102040196909302048093D7
:10091000010426E636E646E850E461E08FE394E021
:100920000CD264E670E080E090E0CBD4CC24C39499
:100930001DECE12E1CECF12E0CE41DE320E030E078
:1009400040EE53E468E370E08FE394E03CD1811122
:1009500009C08091010490910204019690930204D1
:100960008093010420E030E040EA50E461E08FE34E
:1009700094E0E3D164E670E080E090E0A2D4CC247F
:10098000C3941DECE12E1CECF12E0CE41DE320E0E1
:1009900030E443E054E468E370E08FE394E013D183
:1009A000811109C0809101049091020401969093F5
:1009B00002048093010420E030E040EA50E460E06B
:1009C0008FE394E0BAD166E473E08AE494E00E9495
:1009D0006B0D60910104709102044AE050E08AE4DA
:1009E00094E01F910F91FF90EF90CF900C94210E07
:1009F00060E08FE394E017D280E0F3DC80910104A3
:100A000090910204009749F481E090E090930204F1
:100A10008093010461E873E009C01816190654F4C4
:100A2000109202041092010462EA73E08AE494E0F6
:100A30000C94760D0895CF92DF92EF92FF926EE1C3
:100A400081E294E026D36B017C016EE183E094E0C7
:100A500020D329E8C21623E1D206E104F1040CF404
:100A600038C08FE394E09AD020E030E040EA50E4D0
:100A700060E08FE394E014D120E030E040EA50E4FD
:100A800060E08FE394E059D11092020410920104C7
:100A900061E08FE394E0C7D181E0A3DC80910104A1
:100AA00090910204892B09F415DE80910104909144
:100AB0000204892B09F49CDF8091010490910204C7
:100AC000892B21F481E08093000430C0109200044F
:100AD0002DC0693873418105910544F18FE394E09D
:100AE0005DD012DE8091010490910204892BF1F413
:100AF000809100048823D1F061E08DE0FED461E0B4
:100B00008DE034D520E030E040EA50E461E08FE34E
:100B100094E0C6D020E030E040EA50E461E08FE3AA
:100B200094E0FF90EF90DF90CF9007C1FF90EF909F
:100B3000DF90CF9008956DE070E08FE394E00AD0ED
:100B40004DE26FE281E294E079D14EE26FE183E021
:100B500094E074C1EF92FF921F93CF93DF931F92A3
:100B6000CDB7DEB77C01162F61E0812F7983C5D424
:100B7000F70110837981718361E08BE2BED461E07B
:100B80008AE2BBD461E089E2B8D461E088E20F90E8
:100B9000DF91CF911F91FF90EF90AFC4CF93DF9380
:100BA000EC0161E08881E2D46AEF70E080E090E0DF
:100BB00088D360E08881DAD46AEF70E080E090E06A
:100BC000DF91CF917EC34F925F926F927F928F920F
:100BD0009F92AF92BF92CF92DF92EF92FF920F93CC
:100BE0001F93CF93862F49015A01270138010DD455
:100BF0007C01CC2061F065ED73E08AE494E06BD772
:100C00004AE050E0B7018AE494E00E94210EB70167
:100C1000882777FD8095982F0E94E10E6B017C015B
:100C200020E030E040E85FE3C301B2010E94460EDD
:100C30009B01AC01C501B4010E94950F9B01AC0161
:100C4000C701B6010E94AA0E1816CCF0A3019201AA
:100C500060E070E080E89FE30E94450E9B01AC01DC
:100C6000C501B4010E94950F9B01AC01C1E0C70111
:100C7000B6010E94910F87FDC0E08C2F01C080E07B
:100C8000CF911F910F91FF90EF90DF90CF90BF9089
:100C9000AF909F908F907F906F905F904F9008954E
:100CA000CF92DF92EF92FF92CF93C62F69017A0124
:100CB00060E081E25BD460E083E258D460E081E2EE
:100CC0001CD460E083E219D4CC2331F123E333E375
:100CD00043E550E4C701B6010E94AA0E811106C087
:100CE00061E081E20AD460E081E20FC020E030E000
:100CF00040EA50E4C701B6010E94AA0E811106C065
:100D000061E083E2FAD360E083E230D461E080E323
:100D1000F4D361E080E30BC061E080E3EED360E0F8
:100D200080E324D461E081E2E8D360E081E2CF9106
:100D3000FF90EF90DF90CF9019C4CF92DF92EF92A7
:100D4000FF92CF93C62F69017A0160E084E20ED44E
:100D500060E085E20BD460E086E208D460E087E2E0
:100D600005D460E084E2C9D360E085E2C6D360E0E8
:100D700086E2C3D360E087E2C0D3CC2309F442C04B
:100D800023E333E343E550E4C701B601E3D7811120
:100D900006C061E084E2B1D360E084E22CC020E0D0
:100DA00030E040EA50E4C701B601D4D7811106C053
:100DB00061E087E2A2D360E087E21DC026E636E666
:100DC00046E850E4C701B601C5D7811106C061E00D
:100DD00086E293D360E086E20EC02DEC3CEC4CE65C
:100DE00050E4C701B601B6D7811106C061E085E2C3
:100DF00084D360E085E2BAD361E081E37ED361E031
:100E000081E30BC061E081E378D360E081E3AED39E
:100E100061E084E272D360E084E2CF91FF90EF90D2
:100E2000DF90CF90A3C3662319F0549A5C9A01C057
:100E30005C9864E670E080E090E043C2EF92FF923D
:100E40000F931F93CF93DF93EC01E62EF42E21E056
:100E500030E03983288326E331E03F832E8300EEA0
:100E600015E729E030E0088719872A873B8700E2E9
:100E70001EE420E030E00C871D872E873F8785E445
:100E8000861720F42FEF3FEF3983288385E48F15F1
:100E900020F42FEF3FEF3983288361E08E2D2DD38F
:100EA00060E08F2D2AD360E08E2D60D36E2D70E030
:100EB000FB01E25BFE4FE491E88FFB01EC56FE4F35
:100EC000E491F0E0EE0FFF1FE652FE4F25913491C2
:100ED0003A8F298F4F2D50E0FA01E25BFE4FE491EB
:100EE000EB8FFA01EC56FE4FE491F0E0EE0FFF1F9E
:100EF000E652FE4F859194919D8F8C8F4FEF5FEF5F
:100F00006FEF7FE04A835B836C837D83ABD1688B1B
:100F1000798B8A8B9B8BDF91CF911F910F91FF90E3
:100F2000EF900895CF93DF93EC01F894E98DFA8D5B
:100F30009281888D809589238283EC8DFD8D9181AE
:100F40008B8D809589238183EC8DFD8D92818B8D96
:100F5000809589238283EC8DFD8D81819B8D892BEA
:100F60008183EC8DFD8D92818B8D80958923828389
:100F70008AE090E0DDD1EC8DFD8D91818B8D8095A7
:100F800089238183EC8DFD8D92818B8D80958923C2
:100F90008283E98DFA8D8281988D892B8283789462
:100FA000EC8DFD8D3B8D208123234C895D896E89DD
:100FB0007F8988859985AA85BB85211106C0481738
:100FC00059076A077B0708F447C084179507A607E7
:100FD000B70708F43EC0F894EC8DFD8D82819B8D9F
:100FE000892B8283EC8DFD8D81819B8D892B818363
:100FF000EC8DFD8D82819B8D892B8283EC8DFD8D07
:1010000091818B8D809589238183EC8DFD8D9281DB
:101010008B8D809589238283E98DFA8D9281888DCD
:101020008095892382837894EC8DFD8D3B8D208182
:1010300023234C895D896E897F8988859985AA8556
:10104000BB85222391F0481759076A077B07A8F050
:101050000CC08EEF9FEF1AC04F5F5F4F6F4F7F4FF7
:101060004C8B5D8B6E8B7F8B9ECF481759076A0721
:101070007B0778F781E090E009C04F5F5F4F6F4FCB
:101080007F4F4C8B5D8B6E8B7F8BD1CFDF91CF9160
:101090000895CF92DF92EF92FF920F931F93CF9319
:1010A000DF931F92CDB7DEB78C01FC01148A158A3D
:1010B000168A178A662341F08081918197FF08C0C4
:1010C0006FEF7FEFCB017AC060E070E0CB0176C0BC
:1010D000F12CC801698326DF698197FD5AC0F3941A
:1010E000F612F7CFBFD0F801C088D188E288F38824
:1010F0006C197D098E099F09C484D584E684F78420
:10110000C616D706E806F90630F5C488D588E688FD
:10111000F7886281738184819581C616D706E806B7
:10112000F90629F0C61AD70AE80AF90A03C0C12C41
:10113000D12C760144D62DEC3CEC4CEC5DE3F5D69D
:101140000DD6AB01662757FD6095762FC416D506E0
:10115000E606F70618F1F80184899589A689B7890A
:10116000C280D380E480F5808C159D05AE05BF0557
:1011700020F482839383A483B583F801C280D38053
:10118000E480F580BC01CD016C197D098E099F09B1
:1011900015C06EEF7FEF8FEF9FEF10C04FEF5FEF47
:1011A0006FEF7FE0F80142835383648375835AD0E5
:1011B000F801608B718B828B938BCDCF0F90DF9179
:1011C000CF911F910F91FF90EF90DF90CF900895F6
:1011D0001F920F920FB60F9211242F933F938F936C
:1011E0009F93AF93BF938091420490914304A09149
:1011F0004404B09145043091410423E0230F2D377E
:1012000020F40196A11DB11D05C026E8230F02960A
:10121000A11DB11D20934104809342049093430487
:10122000A0934404B09345048091460490914704F0
:10123000A0914804B09149040196A11DB11D80936D
:10124000460490934704A0934804B0934904BF9187
:10125000AF919F918F913F912F910F900FBE0F9063
:101260001F9018952FB7F894609142047091430431
:1012700080914404909145042FBF08953FB7F8949E
:101280008091460490914704A0914804B09149048C
:1012900026B5A89B05C02F3F19F00196A11DB11DD1
:1012A0003FBF6627782F892F9A2F620F711D811DEE
:1012B000911D42E0660F771F881F991F4A95D1F74D
:1012C00008958F929F92AF92BF92CF92DF92EF924A
:1012D000FF926B017C01D2DF4B015C01C114D10490
:1012E000E104F104E1F0D0D4C9DF681979098A0971
:1012F0009B09683E73408105910580F321E0C21A85
:10130000D108E108F10888EE880E83E0981EA11C40
:10131000B11CC114D104E104F10431F7DFCFFF9017
:10132000EF90DF90CF90BF90AF909F908F900895F7
:101330008230910538F0880F991F880F991F059703
:101340000197F1F70895789484B5826084BD84B5DF
:10135000816084BD85B5826085BD85B5816085BDB0
:10136000EEE6F0E0808181608083E1E8F0E01082C9
:10137000808182608083808181608083E0E8F0E00A
:10138000808181608083E1EBF0E0808184608083F4
:10139000E0EBF0E0808181608083E1E9F0E0808132
:1013A00082608083808181608083E0E9F0E08081D9
:1013B00081608083E1EAF0E08081826080838081C7
:1013C00081608083E0EAF0E0808181608083E1E2F7
:1013D000F1E0808182608083808181608083E0E2AF
:1013E000F1E0808181608083EAE7F0E080818460C1
:1013F000808380818260808380818160808380811E
:10140000806880831092C1000895863308F0865367
:1014100020917B00982F9870277F922B90937B00D0
:10142000877020914E0290E4299F90011124822B15
:1014300080937C0080917A00806480937A00809110
:101440007A0086FDFCCF809178002091790090E0B1
:10145000922B089590E0FC013197E231F10508F0FC
:101460004BC0EE58FF4FE6C5809180008F7703C0D8
:10147000809180008F7D809380000895809180000E
:10148000877FF9CF84B58F7702C084B58F7D84BD07
:1014900008958091B0008F7703C08091B0008F7D58
:1014A0008093B0000895809190008F7707C080915D
:1014B00090008F7D03C080919000877F8093900083
:1014C00008958091A0008F7707C08091A0008F7D44
:1014D00003C08091A000877F8093A0000895809131
:1014E00020018F7707C0809120018F7D03C08091FC
:1014F0002001877F809320010895CF93DF9390E0B0
:10150000FC01E25BFE4F2491FC01EC56FE4F8491FE
:10151000882349F190E0880F991FFC01E25FFD4F9D
:10152000A591B4918C509E4FFC01C591D4919FB769
:10153000611108C0F8948C91209582238C93888146
:1015400082230AC0623051F4F8948C91322F309586
:1015500083238C938881822B888304C0F8948C9198
:10156000822B8C939FBFDF91CF9108950F931F9390
:10157000CF93DF931F92CDB7DEB7282F30E0F9016C
:10158000E85FFE4F8491F901E25BFE4F1491F9018F
:10159000EC56FE4F04910023C1F0882319F06983B3
:1015A00059DF6981E02FF0E0EE0FFF1FEC50FE4F96
:1015B000A591B4919FB7F8948C91611103C01095D7
:1015C000812301C0812B8C939FBF0F90DF91CF911E
:1015D0001F910F910895CF93DF93282F30E0F901E9
:1015E000E85FFE4F8491F901E25BFE4FD491F9016F
:1015F000EC56FE4FC491CC2389F081112BDFEC2FE8
:10160000F0E0EE0FFF1FE652FE4FA591B4912C9132
:101610002D2381E090E021F480E002C080E090E0A2
:10162000DF91CF910895FC01818D228D90E0805C47
:101630009F4F821B91098F7399270895FC01918D0B
:10164000828D981731F0828DE80FF11D858D90E025
:1016500008958FEF9FEF0895FC01918D828D98176B
:1016600061F0828DDF01A80FB11D5D968C91928D86
:101670009F5F9F73928F90E008958FEF9FEF089583
:1016800081EE9CE0892B39F080E090E0892B19F005
:1016900098D1811125C080E090E0892B41F080E055
:1016A00090E0892B21F00E94000081111CC080E095
:1016B00090E0892B41F080E090E0892B21F00E949E
:1016C0000000811113C080E090E0892BA1F080E040
:1016D00090E0892B81F00E94000081110AC00895DA
:1016E0000E940000D8CF0E940000E1CF0E940000BD
:1016F000EACF0C9400000895FC01848DDF01A80F4F
:10170000B11DA35ABF4F2C91848D90E001968F7329
:101710009927848FA689B7892C93A089B1898C9148
:1017200080648C93938D848D981306C00288F3890E
:10173000E02D80818F7D80830895CF93DF93EC012E
:10174000888D8823C1F0EA89FB89808185FD05C0E9
:10175000A889B9898C9186FD0EC00FB607FCF5CF1C
:10176000808185FFF2CFA889B9898C9185FFEDCF63
:10177000CE01C2DFE8CFDF91CF910895CF92DF9203
:10178000FF920F931F93CF93DF931F92CDB7DEB7D6
:101790006C0181E0D60158968C9358975B969C918A
:1017A0005B975C968C915C97981307C05096ED916F
:1017B000FC915197808185FD2DC0F601038D10E0CD
:1017C0000F5F1F4F0F731127F02EF601848DF81253
:1017D00010C00FB607FCF9CFD6015096ED91FC91E1
:1017E0005197808185FFF1CFC601698385DF6981CB
:1017F000ECCF838DE80FF11DE35AFF4F6083D601D4
:101800005B960C935B975296ED91FC915397808178
:1018100080620CC0D6015696ED91FC91579760837B
:101820005096ED91FC91519780818064808381E096
:1018300090E00F90DF91CF911F910F91FF90DF907B
:10184000CF900895BF92CF92DF92EF92FF92CF9305
:10185000DF93EC016A017B01B22EE889F98982E00D
:101860008083411581EE58076105710599F060E0AC
:1018700079E08DE390E0A7019601BAD321503109B8
:10188000410951095695479537952795211580E1CE
:10189000380790F0E889F989108260E874E88EE1F1
:1018A00090E0A7019601A4D32150310941095109C3
:1018B0005695479537952795EC85FD853083EE85C0
:1018C000FF852083188EEC89FD89B082EA89FB8927
:1018D000808180618083EA89FB8980818860808340
:1018E000EA89FB89808180688083EA89FB8980811D
:1018F0008F7D8083DF91CF91FF90EF90DF90CF902D
:10190000BF9008951F920F920FB60F9211240BB63D
:101910000F922F938F939F93EF93FF93E0915A042D
:10192000F0915B048081E0916004F091610482FD9C
:1019300012C09081809163048F5F8F732091640443
:10194000821751F0E0916304F0E0E65BFB4F958F66
:101950008093630401C08081FF91EF919F918F91EB
:101960002F910F900BBE0F900FBE0F901F901895E8
:101970001F920F920FB60F9211240BB60F922F9356
:101980003F934F935F936F937F938F939F93AF9307
:10199000BF93EF93FF938AE494E0AEDEFF91EF9163
:1019A000BF91AF919F918F917F916F915F914F9177
:1019B0003F912F910F900BBE0F900FBE0F901F9075
:1019C00018958AE494E02FDE21E0892B09F420E0C9
:1019D000822F089510924D0410924C0488EE93E0EB
:1019E000A0E0B0E080934E0490934F04A093500485
:1019F000B093510482EE93E090934B0480934A0499
:101A000085EC90E0909357048093560484EC90E02A
:101A1000909359048093580480EC90E090935B0479
:101A200080935A0481EC90E090935D0480935C0471
:101A300082EC90E090935F0480935E0486EC90E0EB
:101A40009093610480936004109263041092640484
:101A500010926504109266040895CF92DF92EF927F
:101A6000FF920F931F93CF93DF937C016A01EB01E9
:101A700000E010E00C151D0571F06991D701ED91A2
:101A8000FC910190F081E02DC7011995892B19F087
:101A90000F5F1F4FEFCFC801DF91CF911F910F91C3
:101AA000FF90EF90DF90CF9008956115710581F060
:101AB000DB010D900020E9F7AD0141505109461BB3
:101AC000570BDC01ED91FC910280F381E02D19941C
:101AD00080E090E00895E9CFDC01ED91FC91019068
:101AE000F081E02D19946EEE73E0DFCF0F931F931A
:101AF000CF93DF93EC01D9DF8C01CE01F4DF800FAF
:101B0000911FDF91CF911F910F9108958F929F9216
:101B1000AF92BF92DF92EF92FF920F931F93CF93FA
:101B2000DF93CDB7DEB7A1970FB6F894DEBF0FBE37
:101B3000CDBF7C01F42FD52ECB0119A2223008F4A1
:101B40002AE08E010F5D1F4F822E912CA12CB12C0B
:101B50006F2F7D2DA50194014BD2F22FD32ECA01F8
:101B6000015011096A3014F4E0E301C0E7E3E60F25
:101B7000D801EC93232B242B252B51F7B801C70157
:101B800094DFA1960FB6F894DEBF0FBECDBFDF91F4
:101B9000CF911F910F91FF90EF90DF90BF90AF908A
:101BA0009F908F900895CF92DF92EF92FF920F93C4
:101BB0001F93CF93DF93EC016A017B01211531055F
:101BC00079F4E881F9810190F081E02D642FDF91B3
:101BD000CF911F910F91FF90EF90DF90CF901994CC
:101BE0002A303105D9F477FF18C06DE275DF8C011A
:101BF00044275527BA014C195D096E097F092AE06F
:101C0000CE0184DF800F911FDF91CF911F910F9143
:101C1000FF90EF90DF90CF9008952AE0B701A601E2
:101C2000CE01DF91CF911F910F91FF90EF90DF9048
:101C3000CF906CCF9A01AB01662757FD6095762F48
:101C4000B2CF0F931F93CF93DF93EC019A01AB01B7
:101C5000662757FD6095762FA6DF8C01CE0143DF06
:101C6000800F911FDF91CF911F910F9108950895DB
:101C70006ADBFDDF0E944801C0E4DBE00E941B0537
:101C80002097E1F3FDDCFACF08955058BB27AA272F
:101C90000ED00DC1FED030F003D120F031F49F3FC3
:101CA00011F41EF4F3C00EF4E095E7FBE9C0E92F50
:101CB0000FD180F3BA17620773078407950718F0EE
:101CC00071F49EF527C10EF4E0950B2EBA2FA02DCE
:101CD0000B01B90190010C01CA01A0011124FF27D9
:101CE000591B99F0593F50F4503E68F11A16F040D4
:101CF000A22F232F342F4427585FF3CF46953795D3
:101D00002795A795F0405395C9F77EF41F16BA0B97
:101D1000620B730B840BBAF09150A1F0FF0FBB1F45
:101D2000661F771F881FC2F70EC0BA0F621F731F8E
:101D3000841F48F4879577956795B795F7959E3FEB
:101D400008F0B3CF9395880F08F09927EE0F979579
:101D50008795089571D008F481E0089504D06894BF
:101D6000B111D9C00895BCD088F09F5790F0B92F19
:101D70009927B751A0F0D1F0660F771F881F991FE0
:101D80001AF0BA95C9F712C0B13081F0C3D0B1E0F2
:101D90000895C0C0672F782F8827B85F39F0B93F02
:101DA000CCF3869577956795B395D9F73EF49095E2
:101DB0008095709561957F4F8F4F9F4F0895E89460
:101DC00009C097FB3EF490958095709561957F4F83
:101DD0008F4F9F4F9923A9F0F92F96E9BB27939531
:101DE000F695879577956795B795F111F8CFFAF441
:101DF000BB0F11F460FF1BC06F5F7F4F8F4F9F4F72
:101E000016C0882311F096E911C0772321F09EE8CF
:101E1000872F762F05C0662371F096E8862F70E035
:101E200060E02AF09A95660F771F881FDAF7880F0F
:101E30009695879597F90895990F0008550FAA0B65
:101E4000E0E8FEEF16161706E807F907C0F01216CD
:101E50001306E407F50798F0621B730B840B950BD0
:101E600039F40A2661F0232B242B252B21F4089525
:101E70000A2609F4A140A6958FEF811D811D0895C2
:101E800097F99F6780E870E060E008959FEF80EC2D
:101E9000089500240A9416161706180609060895D0
:101EA00000240A9412161306140605060895092E36
:101EB0000394000C11F4882352F0BB0F40F4BF2BA5
:101EC00011F460FF04C06F5F7F4F8F4F9F4F0895E5
:101ED00057FD9058440F551F59F05F3F71F04795DB
:101EE000880F97FB991F61F09F3F79F087950895C0
:101EF000121613061406551FF2CF4695F1DF08C0DF
:101F0000161617061806991FF1CF869571056105FB
:101F100008940895E894BB2766277727CB0197F9A3
:101F200008958ADF08F48FEF08950BD0C0CFB1DF9A
:101F300028F0B6DF18F0952309F0A2CFA7CF11241F
:101F4000EACFC6DFA0F3959FD1F3950F50E0551F60
:101F5000629FF001729FBB27F00DB11D639FAA27FE
:101F6000F00DB11DAA1F649F6627B00DA11D661F4D
:101F7000829F2227B00DA11D621F739FB00DA11D6E
:101F8000621F839FA00D611D221F749F3327A00D28
:101F9000611D231F849F600D211D822F762F6A2FC4
:101FA00011249F5750408AF0E1F088234AF0EE0F49
:101FB000FF1FBB1F661F771F881F91505040A9F756
:101FC0009E3F510570F05CCFA6CF5F3FECF3983E8B
:101FD000DCF3869577956795B795F795E7959F5FBD
:101FE000C1F7FE2B880F911D9695879597F9089557
:101FF000A1E21A2EAA1BBB1BFD010DC0AA1FBB1F0D
:10200000EE1FFF1FA217B307E407F50720F0A21B7E
:10201000B30BE40BF50B661F771F881F991F1A94EB
:1020200069F760957095809590959B01AC01BD0115
:10203000CF010895EE0FFF1F0590F491E02D199444
:0C2040000790F691E02D1994F894FFCF62
:10204C0002000400060008000A000C000E0010003C
:10205C001200160018001A003300350037003B0040
:10206C003D003F004100140003000500070009007B
:10207C000B000D000F0011001300170019003200A7
:10208C00340036003C003E00400042001500011EAA
:10209C00001D001C001B00466C79696E67204A61AC
:1020AC006C6170656E6F2073656C667465737420FB
:1020BC007630312C20666F722068617264776172A1
:1020CC006520763032000A0D6E6574315F70696E72
:1020DC00733A000A0D6E6574325F70696E733A0064
:1020EC000A0D0A0D2323232320494F206E657420EB
:1020FC0074657374696E67000A0D6E6574313A4CC1
:10210C004F572C206E6574323A494E5055545F50DF
:10211C00554C4C5550000A0D6E6574313A494E5071
:10212C0055545F50554C4C55502C206E6574323ABA
:10213C004C4F57000A0D4C45445F70696E5F7265D9
:10214C006164696E67733A000A0D0A0D2323232319
:10215C00204C45442070696E732074657374696EED
:10216C0067000A0D0A0D2323232320416E616C6F37
:10217C00672050696E732074657374696E67000A0A
:10218C000D5241573A00090909096661696C75726B
:10219C0065733A000A0D56312028332E33562F35ED
:1021AC0056293A000A0D56322028332E33562C204D
:1021BC00332E37562C20342E32562C203556293AB5
:1021CC00000A0D0A0D23232323205043415F656E23
:1021DC0061626C652074657374204641494C55529C
:1021EC0045000A0D0A0D23232323205043415F652C
:1021FC006E61626C6520746573742050415353009A
:10220C004A756D70657220746573742072656164B3
:10221C00696E673A0052656164696E673A00000046
:10222C000000BE0B2D0D130B2C0B1E0B9D0B0D0A62
:10223C00006E616E00696E66006F7666002E00009F
:00000001FF
